{
  "_format": "hh-sol-artifact-1",
  "contractName": "SmartBacker",
  "sourceName": "src/contracts/SmartBacker.sol",
  "abi": [
    {
      "inputs": [
        {
          "internalType": "uint256",
          "name": "_projectTax",
          "type": "uint256"
        }
      ],
      "stateMutability": "nonpayable",
      "type": "constructor"
    },
    {
      "anonymous": false,
      "inputs": [
        {
          "indexed": false,
          "internalType": "uint256",
          "name": "id",
          "type": "uint256"
        },
        {
          "indexed": false,
          "internalType": "string",
          "name": "actionType",
          "type": "string"
        },
        {
          "indexed": true,
          "internalType": "address",
          "name": "executor",
          "type": "address"
        },
        {
          "indexed": false,
          "internalType": "uint256",
          "name": "timestamp",
          "type": "uint256"
        }
      ],
      "name": "Action",
      "type": "event"
    },
    {
      "inputs": [
        {
          "internalType": "uint256",
          "name": "id",
          "type": "uint256"
        }
      ],
      "name": "backProject",
      "outputs": [
        {
          "internalType": "bool",
          "name": "",
          "type": "bool"
        }
      ],
      "stateMutability": "payable",
      "type": "function"
    },
    {
      "inputs": [],
      "name": "balance",
      "outputs": [
        {
          "internalType": "uint256",
          "name": "",
          "type": "uint256"
        }
      ],
      "stateMutability": "view",
      "type": "function"
    },
    {
      "inputs": [
        {
          "internalType": "uint256",
          "name": "_taxPct",
          "type": "uint256"
        }
      ],
      "name": "changeTax",
      "outputs": [],
      "stateMutability": "nonpayable",
      "type": "function"
    },
    {
      "inputs": [
        {
          "internalType": "string",
          "name": "title",
          "type": "string"
        },
        {
          "internalType": "string",
          "name": "description",
          "type": "string"
        },
        {
          "internalType": "string",
          "name": "imageURL",
          "type": "string"
        },
        {
          "internalType": "uint256",
          "name": "cost",
          "type": "uint256"
        },
        {
          "internalType": "uint256",
          "name": "expiresAt",
          "type": "uint256"
        }
      ],
      "name": "createProject",
      "outputs": [
        {
          "internalType": "bool",
          "name": "",
          "type": "bool"
        }
      ],
      "stateMutability": "nonpayable",
      "type": "function"
    },
    {
      "inputs": [
        {
          "internalType": "uint256",
          "name": "id",
          "type": "uint256"
        }
      ],
      "name": "deleteProject",
      "outputs": [
        {
          "internalType": "bool",
          "name": "",
          "type": "bool"
        }
      ],
      "stateMutability": "nonpayable",
      "type": "function"
    },
    {
      "inputs": [
        {
          "internalType": "uint256",
          "name": "id",
          "type": "uint256"
        }
      ],
      "name": "getBackers",
      "outputs": [
        {
          "components": [
            {
              "internalType": "address",
              "name": "owner",
              "type": "address"
            },
            {
              "internalType": "uint256",
              "name": "contribution",
              "type": "uint256"
            },
            {
              "internalType": "uint256",
              "name": "timestamp",
              "type": "uint256"
            },
            {
              "internalType": "bool",
              "name": "refunded",
              "type": "bool"
            }
          ],
          "internalType": "struct SmartBacker.backerStruct[]",
          "name": "",
          "type": "tuple[]"
        }
      ],
      "stateMutability": "view",
      "type": "function"
    },
    {
      "inputs": [
        {
          "internalType": "uint256",
          "name": "id",
          "type": "uint256"
        }
      ],
      "name": "getProject",
      "outputs": [
        {
          "components": [
            {
              "internalType": "uint256",
              "name": "id",
              "type": "uint256"
            },
            {
              "internalType": "address",
              "name": "owner",
              "type": "address"
            },
            {
              "internalType": "string",
              "name": "title",
              "type": "string"
            },
            {
              "internalType": "string",
              "name": "description",
              "type": "string"
            },
            {
              "internalType": "string",
              "name": "imageURL",
              "type": "string"
            },
            {
              "internalType": "uint256",
              "name": "cost",
              "type": "uint256"
            },
            {
              "internalType": "uint256",
              "name": "raised",
              "type": "uint256"
            },
            {
              "internalType": "uint256",
              "name": "timestamp",
              "type": "uint256"
            },
            {
              "internalType": "uint256",
              "name": "expiresAt",
              "type": "uint256"
            },
            {
              "internalType": "uint256",
              "name": "backers",
              "type": "uint256"
            },
            {
              "internalType": "enum SmartBacker.statusEnum",
              "name": "status",
              "type": "uint8"
            }
          ],
          "internalType": "struct SmartBacker.projectStruct",
          "name": "",
          "type": "tuple"
        }
      ],
      "stateMutability": "view",
      "type": "function"
    },
    {
      "inputs": [],
      "name": "getProjects",
      "outputs": [
        {
          "components": [
            {
              "internalType": "uint256",
              "name": "id",
              "type": "uint256"
            },
            {
              "internalType": "address",
              "name": "owner",
              "type": "address"
            },
            {
              "internalType": "string",
              "name": "title",
              "type": "string"
            },
            {
              "internalType": "string",
              "name": "description",
              "type": "string"
            },
            {
              "internalType": "string",
              "name": "imageURL",
              "type": "string"
            },
            {
              "internalType": "uint256",
              "name": "cost",
              "type": "uint256"
            },
            {
              "internalType": "uint256",
              "name": "raised",
              "type": "uint256"
            },
            {
              "internalType": "uint256",
              "name": "timestamp",
              "type": "uint256"
            },
            {
              "internalType": "uint256",
              "name": "expiresAt",
              "type": "uint256"
            },
            {
              "internalType": "uint256",
              "name": "backers",
              "type": "uint256"
            },
            {
              "internalType": "enum SmartBacker.statusEnum",
              "name": "status",
              "type": "uint8"
            }
          ],
          "internalType": "struct SmartBacker.projectStruct[]",
          "name": "",
          "type": "tuple[]"
        }
      ],
      "stateMutability": "view",
      "type": "function"
    },
    {
      "inputs": [],
      "name": "owner",
      "outputs": [
        {
          "internalType": "address",
          "name": "",
          "type": "address"
        }
      ],
      "stateMutability": "view",
      "type": "function"
    },
    {
      "inputs": [
        {
          "internalType": "uint256",
          "name": "id",
          "type": "uint256"
        }
      ],
      "name": "payOutProject",
      "outputs": [
        {
          "internalType": "bool",
          "name": "",
          "type": "bool"
        }
      ],
      "stateMutability": "nonpayable",
      "type": "function"
    },
    {
      "inputs": [],
      "name": "projectCount",
      "outputs": [
        {
          "internalType": "uint256",
          "name": "",
          "type": "uint256"
        }
      ],
      "stateMutability": "view",
      "type": "function"
    },
    {
      "inputs": [
        {
          "internalType": "uint256",
          "name": "",
          "type": "uint256"
        }
      ],
      "name": "projectExist",
      "outputs": [
        {
          "internalType": "bool",
          "name": "",
          "type": "bool"
        }
      ],
      "stateMutability": "view",
      "type": "function"
    },
    {
      "inputs": [],
      "name": "projectTax",
      "outputs": [
        {
          "internalType": "uint256",
          "name": "",
          "type": "uint256"
        }
      ],
      "stateMutability": "view",
      "type": "function"
    },
    {
      "inputs": [],
      "name": "stats",
      "outputs": [
        {
          "internalType": "uint256",
          "name": "totalProjects",
          "type": "uint256"
        },
        {
          "internalType": "uint256",
          "name": "totalBacking",
          "type": "uint256"
        },
        {
          "internalType": "uint256",
          "name": "totalDonations",
          "type": "uint256"
        }
      ],
      "stateMutability": "view",
      "type": "function"
    },
    {
      "inputs": [
        {
          "internalType": "uint256",
          "name": "id",
          "type": "uint256"
        },
        {
          "internalType": "string",
          "name": "title",
          "type": "string"
        },
        {
          "internalType": "string",
          "name": "description",
          "type": "string"
        },
        {
          "internalType": "string",
          "name": "imageURL",
          "type": "string"
        },
        {
          "internalType": "uint256",
          "name": "expiresAt",
          "type": "uint256"
        }
      ],
      "name": "updateProject",
      "outputs": [
        {
          "internalType": "bool",
          "name": "",
          "type": "bool"
        }
      ],
      "stateMutability": "nonpayable",
      "type": "function"
    }
  ],
  "bytecode": "0x608060405234801561001057600080fd5b5060405161219938038061219983398101604081905261002f91610049565b600080546001600160a01b03191633179055600155610062565b60006020828403121561005b57600080fd5b5051919050565b612128806100716000396000f3fe6080604052600436106100e85760003560e01c80639f39a1941161008a578063d24cd3ec11610059578063d24cd3ec14610286578063d80528ae1461029c578063dcc60128146102d6578063f0f3f2c8146102f857600080fd5b80639f39a19414610210578063b531dcba14610223578063b69ef8a814610243578063c9168b721461025957600080fd5b80634cd0cb28116100c65780634cd0cb28146101685780638593054b146101885780638da5cb5b146101b85780639a3fa8c7146101f057600080fd5b8063056c29ee146100ed57806336fbad26146101225780633e45c8af14610146575b600080fd5b3480156100f957600080fd5b5061010d610108366004611c31565b610325565b60405190151581526020015b60405180910390f35b34801561012e57600080fd5b5061013860025481565b604051908152602001610119565b34801561015257600080fd5b50610166610161366004611ccb565b61078e565b005b34801561017457600080fd5b5061010d610183366004611ccb565b6107e3565b34801561019457600080fd5b5061010d6101a3366004611ccb565b600a6020526000908152604090205460ff1681565b3480156101c457600080fd5b506000546101d8906001600160a01b031681565b6040516001600160a01b039091168152602001610119565b3480156101fc57600080fd5b5061010d61020b366004611ce4565b61095f565b61010d61021e366004611ccb565b610bd6565b34801561022f57600080fd5b5061010d61023e366004611ccb565b61102c565b34801561024f57600080fd5b5061013860035481565b34801561026557600080fd5b50610279610274366004611ccb565b61111b565b6040516101199190611d7e565b34801561029257600080fd5b5061013860015481565b3480156102a857600080fd5b506004546005546006546102bb92919083565b60408051938452602084019290925290820152606001610119565b3480156102e257600080fd5b506102eb6111bd565b6040516101199190611f37565b34801561030457600080fd5b50610318610313366004611ccb565b611458565b6040516101199190611f99565b6000808651116103745760405162461bcd60e51b81526020600482015260156024820152745469746c652063616e6e6f7420626520656d70747960581b60448201526064015b60405180910390fd5b60008551116103c55760405162461bcd60e51b815260206004820152601b60248201527f4465736372697074696f6e2063616e6e6f7420626520656d7074790000000000604482015260640161036b565b60008451116104115760405162461bcd60e51b8152602060048201526018602482015277496d61676555524c2063616e6e6f7420626520656d70747960401b604482015260640161036b565b600083116104575760405162461bcd60e51b8152602060048201526013602482015272436f73742063616e6e6f74206265207a65726f60681b604482015260640161036b565b61045f611a82565b600254815233602080830191825260408301898152606084018990526080840188905260a084018790524260e085015261010084018690526007805460018101825560009190915284517fa66cc928b5edb82af9bd49922954155ab7b0942694bea4ce44661d9a8736c688600b90920291820190815593517fa66cc928b5edb82af9bd49922954155ab7b0942694bea4ce44661d9a8736c689820180546001600160a01b0319166001600160a01b039092169190911790559051805185949361054c937fa66cc928b5edb82af9bd49922954155ab7b0942694bea4ce44661d9a8736c68a01920190611af5565b5060608201518051610568916003840191602090910190611af5565b5060808201518051610584916004840191602090910190611af5565b5060a0820151600582015560c0820151600682015560e0820151600782015561010082015160088201556101208201516009820155610140820151600a8201805460ff191660018360048111156105dd576105dd611e3a565b021790555050600280546000908152600a602090815260408083208054600160ff1990911681179091553384526008835281842080548083018255908552938390208751600b909502019384558683015190840180546001600160a01b0319166001600160a01b039092169190911790558501518051869550929361066a93908501929190910190611af5565b5060608201518051610686916003840191602090910190611af5565b50608082015180516106a2916004840191602090910190611af5565b5060a0820151600582015560c0820151600682015560e0820151600782015561010082015160088201556101208201516009820155610140820151600a8201805460ff191660018360048111156106fb576106fb611e3a565b021790555050506001600460000160008282546107189190611fc9565b90915550506002805433916000805160206120d38339815191529190600061073f83611fe1565b9091555060408051918252606060208301819052600f908301526e141493d29150d50810d49150551151608a1b6080830152429082015260a00160405180910390a25060019695505050505050565b6000546001600160a01b031633146107de5760405162461bcd60e51b81526020600482015260136024820152724f776e6572207265736572766564206f6e6c7960681b604482015260640161036b565b600155565b600080600783815481106107f9576107f9611ffc565b60009182526020909120600a600b90920201015460ff16600481111561082157610821611e3a565b146108695760405162461bcd60e51b8152602060048201526018602482015277141c9bda9958dd081b9bc81b1bdb99d95c881bdc195b995960421b604482015260640161036b565b6007828154811061087c5761087c611ffc565b60009182526020909120600b90910201600101546001600160a01b031633146108b75760405162461bcd60e51b815260040161036b90612012565b6003600783815481106108cc576108cc611ffc565b60009182526020909120600a600b9092020101805460ff191660018360048111156108f9576108f9611e3a565b021790555061090782611738565b60408051838152606060208201819052600f908201526e141493d29150d50811115311551151608a1b60808201524281830152905133916000805160206120d3833981519152919081900360a00190a2506001919050565b60006007868154811061097457610974611ffc565b60009182526020909120600b90910201600101546001600160a01b031633146109af5760405162461bcd60e51b815260040161036b90612012565b60008551116109f85760405162461bcd60e51b81526020600482015260156024820152745469746c652063616e6e6f7420626520656d70747960581b604482015260640161036b565b6000845111610a495760405162461bcd60e51b815260206004820152601b60248201527f4465736372697074696f6e2063616e6e6f7420626520656d7074790000000000604482015260640161036b565b6000835111610a955760405162461bcd60e51b8152602060048201526018602482015277496d61676555524c2063616e6e6f7420626520656d70747960401b604482015260640161036b565b8460078781548110610aa957610aa9611ffc565b90600052602060002090600b02016002019080519060200190610acd929190611af5565b508360078781548110610ae257610ae2611ffc565b90600052602060002090600b02016003019080519060200190610b06929190611af5565b508260078781548110610b1b57610b1b611ffc565b90600052602060002090600b02016004019080519060200190610b3f929190611af5565b508160078781548110610b5457610b54611ffc565b90600052602060002090600b020160080181905550336001600160a01b03166000805160206120d38339815191528742604051610bc2929190918252606060208301819052600f908301526e141493d29150d50815541110551151608a1b6080830152604082015260a00190565b60405180910390a250600195945050505050565b6000803411610c275760405162461bcd60e51b815260206004820152601f60248201527f4574686572206d7573742062652067726561746572207468616e207a65726f00604482015260640161036b565b6000828152600a602052604090205460ff16610c795760405162461bcd60e51b8152602060048201526011602482015270141c9bda9958dd081b9bdd08199bdd5b99607a1b604482015260640161036b565b600060078381548110610c8e57610c8e611ffc565b60009182526020909120600a600b90920201015460ff166004811115610cb657610cb6611e3a565b14610cfe5760405162461bcd60e51b8152602060048201526018602482015277141c9bda9958dd081b9bc81b1bdb99d95c881bdc195b995960421b604482015260640161036b565b600160046001016000828254610d149190611fc9565b909155505060068054349190600090610d2e908490611fc9565b925050819055503460078381548110610d4957610d49611ffc565b90600052602060002090600b02016006016000828254610d699190611fc9565b92505081905550600160078381548110610d8557610d85611ffc565b90600052602060002090600b02016009016000828254610da59190611fc9565b9091555050600082815260096020908152604080832081516080808201845233808352348387019081524284870181815260608087018b8152885460018082018b55998d529b8b902097516004909c0290970180546001600160a01b0319166001600160a01b03909c169b909b178b559251968a01969096559451600289015592516003909701805460ff1916971515979097179096558351888152948501829052600e918501919091526d141493d29150d508109050d2d15160921b90840152908201526000805160206120d38339815191529060a00160405180910390a260078281548110610e9857610e98611ffc565b90600052602060002090600b02016005015460078381548110610ebd57610ebd611ffc565b90600052602060002090600b02016006015410610f6857600160078381548110610ee957610ee9611ffc565b60009182526020909120600a600b9092020101805460ff19166001836004811115610f1657610f16611e3a565b021790555060078281548110610f2e57610f2e611ffc565b90600052602060002090600b02016006015460036000828254610f519190611fc9565b90915550610f609050826118a6565b506001919050565b600360078381548110610f7d57610f7d611ffc565b60009182526020909120600a600b90920201015460ff166004811115610fa557610fa5611e3a565b14158015610fd7575060078281548110610fc157610fc1611ffc565b90600052602060002090600b0201600801544210155b15610f6057600260078381548110610ff157610ff1611ffc565b60009182526020909120600a600b9092020101805460ff1916600183600481111561101e5761101e611e3a565b0217905550610f6082611738565b600060016007838154811061104357611043611ffc565b60009182526020909120600a600b90920201015460ff16600481111561106b5761106b611e3a565b146110af5760405162461bcd60e51b8152602060048201526014602482015273141c9bda9958dd081b9bdd081054141493d5915160621b604482015260640161036b565b600782815481106110c2576110c2611ffc565b60009182526020909120600b90910201600101546001600160a01b03163314806110f657506000546001600160a01b031633145b6111125760405162461bcd60e51b815260040161036b90612012565b610f60826118a6565b606060096000838152602001908152602001600020805480602002602001604051908101604052809291908181526020016000905b828210156111b2576000848152602090819020604080516080810182526004860290920180546001600160a01b03168352600180820154848601526002820154928401929092526003015460ff16151560608301529083529092019101611150565b505050509050919050565b60606007805480602002602001604051908101604052809291908181526020016000905b8282101561144f5760008481526020908190206040805161016081018252600b86029092018054835260018101546001600160a01b031693830193909352600283018054929392918401916112359061203f565b80601f01602080910402602001604051908101604052809291908181526020018280546112619061203f565b80156112ae5780601f10611283576101008083540402835291602001916112ae565b820191906000526020600020905b81548152906001019060200180831161129157829003601f168201915b505050505081526020016003820180546112c79061203f565b80601f01602080910402602001604051908101604052809291908181526020018280546112f39061203f565b80156113405780601f1061131557610100808354040283529160200191611340565b820191906000526020600020905b81548152906001019060200180831161132357829003601f168201915b505050505081526020016004820180546113599061203f565b80601f01602080910402602001604051908101604052809291908181526020018280546113859061203f565b80156113d25780601f106113a7576101008083540402835291602001916113d2565b820191906000526020600020905b8154815290600101906020018083116113b557829003601f168201915b505050918352505060058201546020820152600682015460408201526007820154606082015260088201546080820152600982015460a0820152600a82015460c09091019060ff16600481111561142b5761142b611e3a565b600481111561143c5761143c611e3a565b81525050815260200190600101906111e1565b50505050905090565b611460611a82565b6000828152600a602052604090205460ff166114b25760405162461bcd60e51b8152602060048201526011602482015270141c9bda9958dd081b9bdd08199bdd5b99607a1b604482015260640161036b565b600782815481106114c5576114c5611ffc565b90600052602060002090600b020160405180610160016040529081600082015481526020016001820160009054906101000a90046001600160a01b03166001600160a01b03166001600160a01b031681526020016002820180546115289061203f565b80601f01602080910402602001604051908101604052809291908181526020018280546115549061203f565b80156115a15780601f10611576576101008083540402835291602001916115a1565b820191906000526020600020905b81548152906001019060200180831161158457829003601f168201915b505050505081526020016003820180546115ba9061203f565b80601f01602080910402602001604051908101604052809291908181526020018280546115e69061203f565b80156116335780601f1061160857610100808354040283529160200191611633565b820191906000526020600020905b81548152906001019060200180831161161657829003601f168201915b5050505050815260200160048201805461164c9061203f565b80601f01602080910402602001604051908101604052809291908181526020018280546116789061203f565b80156116c55780601f1061169a576101008083540402835291602001916116c5565b820191906000526020600020905b8154815290600101906020018083116116a857829003601f168201915b505050918352505060058201546020820152600682015460408201526007820154606082015260088201546080820152600982015460a0820152600a82015460c09091019060ff16600481111561171e5761171e611e3a565b600481111561172f5761172f611e3a565b90525092915050565b60005b6000828152600960205260409020548110156118a257600082815260096020526040812080548390811061177157611771611ffc565b6000918252602080832060049092029091015485835260099091526040822080546001600160a01b03909216935090849081106117b0576117b0611ffc565b906000526020600020906004020160010154905060016009600086815260200190815260200160002084815481106117ea576117ea611ffc565b906000526020600020906004020160030160006101000a81548160ff0219169083151502179055504260096000868152602001908152602001600020848154811061183757611837611ffc565b9060005260206000209060040201600201819055506118568282611a1d565b60016004600101600082825461186c919061207a565b90915550506006805482919060009061188690849061207a565b925050819055505050808061189a90611fe1565b91505061173b565b5050565b6000600782815481106118bb576118bb611ffc565b90600052602060002090600b020160060154905060006064600154836118e19190612091565b6118eb91906120b0565b905060046007848154811061190257611902611ffc565b60009182526020909120600a600b9092020101805460ff1916600183600481111561192f5761192f611e3a565b02179055506119766007848154811061194a5761194a611ffc565b600091825260209091206001600b9092020101546001600160a01b0316611971838561207a565b611a1d565b60005461198c906001600160a01b031682611a1d565b6007838154811061199f5761199f611ffc565b90600052602060002090600b020160060154600360008282546119c2919061207a565b9091555050604080518481526060602082018190526010908201526f141493d29150d508141052510813d55560821b60808201524281830152905133916000805160206120d3833981519152919081900360a00190a2505050565b6000826001600160a01b03168260405160006040518083038185875af1925050503d8060008114611a6a576040519150601f19603f3d011682016040523d82523d6000602084013e611a6f565b606091505b5050905080611a7d57600080fd5b505050565b6040518061016001604052806000815260200160006001600160a01b03168152602001606081526020016060815260200160608152602001600081526020016000815260200160008152602001600081526020016000815260200160006004811115611af057611af0611e3a565b905290565b828054611b019061203f565b90600052602060002090601f016020900481019282611b235760008555611b69565b82601f10611b3c57805160ff1916838001178555611b69565b82800160010185558215611b69579182015b82811115611b69578251825591602001919060010190611b4e565b50611b75929150611b79565b5090565b5b80821115611b755760008155600101611b7a565b634e487b7160e01b600052604160045260246000fd5b600082601f830112611bb557600080fd5b813567ffffffffffffffff80821115611bd057611bd0611b8e565b604051601f8301601f19908116603f01168101908282118183101715611bf857611bf8611b8e565b81604052838152866020858801011115611c1157600080fd5b836020870160208301376000602085830101528094505050505092915050565b600080600080600060a08688031215611c4957600080fd5b853567ffffffffffffffff80821115611c6157600080fd5b611c6d89838a01611ba4565b96506020880135915080821115611c8357600080fd5b611c8f89838a01611ba4565b95506040880135915080821115611ca557600080fd5b50611cb288828901611ba4565b9598949750949560608101359550608001359392505050565b600060208284031215611cdd57600080fd5b5035919050565b600080600080600060a08688031215611cfc57600080fd5b85359450602086013567ffffffffffffffff80821115611d1b57600080fd5b611d2789838a01611ba4565b95506040880135915080821115611d3d57600080fd5b611d4989838a01611ba4565b94506060880135915080821115611d5f57600080fd5b50611d6c88828901611ba4565b95989497509295608001359392505050565b602080825282518282018190526000919060409081850190868401855b82811015611de057815180516001600160a01b031685528681015187860152858101518686015260609081015115159085015260809093019290850190600101611d9b565b5091979650505050505050565b6000815180845260005b81811015611e1357602081850181015186830182015201611df7565b81811115611e25576000602083870101525b50601f01601f19169290920160200192915050565b634e487b7160e01b600052602160045260246000fd5b60058110611e6e57634e487b7160e01b600052602160045260246000fd5b9052565b6000610160825184526020830151611e9560208601826001600160a01b03169052565b506040830151816040860152611ead82860182611ded565b91505060608301518482036060860152611ec78282611ded565b91505060808301518482036080860152611ee18282611ded565b91505060a083015160a085015260c083015160c085015260e083015160e085015261010080840151818601525061012080840151818601525061014080840151611f2d82870182611e50565b5090949350505050565b6000602080830181845280855180835260408601915060408160051b870101925083870160005b82811015611f8c57603f19888603018452611f7a858351611e72565b94509285019290850190600101611f5e565b5092979650505050505050565b602081526000611fac6020830184611e72565b9392505050565b634e487b7160e01b600052601160045260246000fd5b60008219821115611fdc57611fdc611fb3565b500190565b6000600019821415611ff557611ff5611fb3565b5060010190565b634e487b7160e01b600052603260045260246000fd5b602080825260139082015272556e617574686f72697a656420456e7469747960681b604082015260600190565b600181811c9082168061205357607f821691505b6020821081141561207457634e487b7160e01b600052602260045260246000fd5b50919050565b60008282101561208c5761208c611fb3565b500390565b60008160001904831182151516156120ab576120ab611fb3565b500290565b6000826120cd57634e487b7160e01b600052601260045260246000fd5b50049056feaee8e5d3bbb2f71a951b5632cee20f7ac487b9f8ab4f66a236f7694b13af7c6aa26469706673582212208e1303ad280b0cacbb464478b772c248d38be5dd09de0150d0508ee54ac0113964736f6c634300080b0033",
  "linkReferences": {},
  "deployedLinkReferences": {}
}